{
  "_format": "hh-sol-artifact-1",
  "contractName": "Payment",
  "sourceName": "contracts/Payment.sol",
  "abi": [
    {
      "inputs": [],
      "stateMutability": "nonpayable",
      "type": "constructor"
    },
    {
      "anonymous": false,
      "inputs": [
        {
          "indexed": true,
          "internalType": "address",
          "name": "previousOwner",
          "type": "address"
        },
        {
          "indexed": true,
          "internalType": "address",
          "name": "newOwner",
          "type": "address"
        }
      ],
      "name": "OwnershipTransferred",
      "type": "event"
    },
    {
      "anonymous": false,
      "inputs": [
        {
          "indexed": false,
          "internalType": "string",
          "name": "orderID",
          "type": "string"
        },
        {
          "indexed": false,
          "internalType": "uint256",
          "name": "amount",
          "type": "uint256"
        },
        {
          "indexed": false,
          "internalType": "address",
          "name": "token",
          "type": "address"
        },
        {
          "indexed": false,
          "internalType": "uint256",
          "name": "purchaseTime",
          "type": "uint256"
        }
      ],
      "name": "PurchaseByToken",
      "type": "event"
    },
    {
      "anonymous": false,
      "inputs": [
        {
          "indexed": false,
          "internalType": "address",
          "name": "token",
          "type": "address"
        },
        {
          "indexed": false,
          "internalType": "address",
          "name": "receiver",
          "type": "address"
        }
      ],
      "name": "WithdrawContractToken",
      "type": "event"
    },
    {
      "inputs": [],
      "name": "adminAddress",
      "outputs": [
        {
          "internalType": "address",
          "name": "",
          "type": "address"
        }
      ],
      "stateMutability": "view",
      "type": "function"
    },
    {
      "inputs": [],
      "name": "owner",
      "outputs": [
        {
          "internalType": "address",
          "name": "",
          "type": "address"
        }
      ],
      "stateMutability": "view",
      "type": "function"
    },
    {
      "inputs": [
        {
          "internalType": "string",
          "name": "_orderID",
          "type": "string"
        },
        {
          "internalType": "address",
          "name": "_token",
          "type": "address"
        },
        {
          "internalType": "uint256",
          "name": "_amount",
          "type": "uint256"
        }
      ],
      "name": "purchase",
      "outputs": [],
      "stateMutability": "nonpayable",
      "type": "function"
    },
    {
      "inputs": [
        {
          "internalType": "address",
          "name": "",
          "type": "address"
        },
        {
          "internalType": "uint256",
          "name": "",
          "type": "uint256"
        }
      ],
      "name": "purchaseHistory",
      "outputs": [
        {
          "internalType": "string",
          "name": "orderID",
          "type": "string"
        },
        {
          "internalType": "uint256",
          "name": "amount",
          "type": "uint256"
        },
        {
          "internalType": "address",
          "name": "token",
          "type": "address"
        },
        {
          "internalType": "uint256",
          "name": "purchaseTime",
          "type": "uint256"
        }
      ],
      "stateMutability": "view",
      "type": "function"
    },
    {
      "inputs": [],
      "name": "renounceOwnership",
      "outputs": [],
      "stateMutability": "nonpayable",
      "type": "function"
    },
    {
      "inputs": [
        {
          "internalType": "address",
          "name": "newOwner",
          "type": "address"
        }
      ],
      "name": "transferOwnership",
      "outputs": [],
      "stateMutability": "nonpayable",
      "type": "function"
    },
    {
      "inputs": [
        {
          "internalType": "address",
          "name": "token",
          "type": "address"
        }
      ],
      "name": "withdrawContractToken",
      "outputs": [],
      "stateMutability": "nonpayable",
      "type": "function"
    }
  ],
  "bytecode": "0x608060405234801561001057600080fd5b5061001a33610031565b600180546001600160a01b03191633179055610081565b600080546001600160a01b038381166001600160a01b0319831681178455604051919092169283917f8be0079c531659141344cd1fd0a4f28419497f9722a3daafe3b4186f6b6457e09190a35050565b610caa806100906000396000f3fe608060405234801561001057600080fd5b506004361061006d5760003560e01c8063209936fe14610072578063715018a61461009e5780638da5cb5b146100a8578063a111b203146100c2578063d13a00ba146100d5578063f2fde38b146100e8578063fc6f9468146100fb575b600080fd5b6100856100803660046109ce565b61010e565b6040516100959493929190610a50565b60405180910390f35b6100a66101ef565b005b6000546001600160a01b03165b6040516100959190610a88565b6100a66100d0366004610a9c565b610203565b6100a66100e3366004610acd565b610314565b6100a66100f6366004610a9c565b6104fb565b6001546100b5906001600160a01b031681565b6002602052816000526040600020818154811061012a57600080fd5b90600052602060002090600402016000915091505080600001805461014e90610b98565b80601f016020809104026020016040519081016040528092919081815260200182805461017a90610b98565b80156101c75780601f1061019c576101008083540402835291602001916101c7565b820191906000526020600020905b8154815290600101906020018083116101aa57829003601f168201915b5050505060018301546002840154600390940154929390926001600160a01b03909116915084565b6101f7610574565b61020160006105ce565b565b61020b610574565b6040516370a0823160e01b81526000906001600160a01b038316906370a082319061023a903090600401610a88565b60206040518083038186803b15801561025257600080fd5b505afa158015610266573d6000803e3d6000fd5b505050506040513d601f19601f8201168201806040525081019061028a9190610bd3565b9050600081116102b55760405162461bcd60e51b81526004016102ac90610bec565b60405180910390fd5b6001546102cf906001600160a01b0384811691168361061e565b604080516001600160a01b03841681523060208201527f91c384b42ec604100e349c48846d4cb464de299cb85386567016074c8cd1c762910160405180910390a15050565b6000811161035e5760405162461bcd60e51b8152602060048201526017602482015276151c985b9cd9995c88185b5bdd5b9d081a5b9d985b1a59604a1b60448201526064016102ac565b6040516370a0823160e01b815281906001600160a01b038416906370a082319061038c903390600401610a88565b60206040518083038186803b1580156103a457600080fd5b505afa1580156103b8573d6000803e3d6000fd5b505050506040513d601f19601f820116820180604052508101906103dc9190610bd3565b10156103fa5760405162461bcd60e51b81526004016102ac90610bec565b600154610416906001600160a01b038481169133911684610686565b6040805160808101825284815260208082018490526001600160a01b0385168284015242606083015233600090815260028252928320805460018101825590845292819020825180519394859460049091029092019261047b92849290910190610919565b50602082015160018201556040808301516002830180546001600160a01b0319166001600160a01b03909216919091179055606090920151600390910155517f718c2c43bf1f11d3a444a28ab0bdf11846d23279c145caa9e897e19258e16090906104ed908690859087904290610a50565b60405180910390a150505050565b610503610574565b6001600160a01b0381166105685760405162461bcd60e51b815260206004820152602660248201527f4f776e61626c653a206e6577206f776e657220697320746865207a65726f206160448201526564647265737360d01b60648201526084016102ac565b610571816105ce565b50565b6000546001600160a01b031633146102015760405162461bcd60e51b815260206004820181905260248201527f4f776e61626c653a2063616c6c6572206973206e6f7420746865206f776e657260448201526064016102ac565b600080546001600160a01b038381166001600160a01b0319831681178455604051919092169283917f8be0079c531659141344cd1fd0a4f28419497f9722a3daafe3b4186f6b6457e09190a35050565b6040516001600160a01b03831660248201526044810182905261068190849063a9059cbb60e01b906064015b60408051601f198184030181529190526020810180516001600160e01b03166001600160e01b0319909316929092179091526106c4565b505050565b6040516001600160a01b03808516602483015283166044820152606481018290526106be9085906323b872dd60e01b9060840161064a565b50505050565b6000610719826040518060400160405280602081526020017f5361666545524332303a206c6f772d6c6576656c2063616c6c206661696c6564815250856001600160a01b03166107969092919063ffffffff16565b80519091501561068157808060200190518101906107379190610c23565b6106815760405162461bcd60e51b815260206004820152602a60248201527f5361666545524332303a204552433230206f7065726174696f6e20646964206e6044820152691bdd081cdd58d8d9595960b21b60648201526084016102ac565b60606107a584846000856107af565b90505b9392505050565b6060824710156108105760405162461bcd60e51b815260206004820152602660248201527f416464726573733a20696e73756666696369656e742062616c616e636520666f6044820152651c8818d85b1b60d21b60648201526084016102ac565b6001600160a01b0385163b6108675760405162461bcd60e51b815260206004820152601d60248201527f416464726573733a2063616c6c20746f206e6f6e2d636f6e747261637400000060448201526064016102ac565b600080866001600160a01b031685876040516108839190610c45565b60006040518083038185875af1925050503d80600081146108c0576040519150601f19603f3d011682016040523d82523d6000602084013e6108c5565b606091505b50915091506108d58282866108e0565b979650505050505050565b606083156108ef5750816107a8565b8251156108ff5782518084602001fd5b8160405162461bcd60e51b81526004016102ac9190610c61565b82805461092590610b98565b90600052602060002090601f016020900481019282610947576000855561098d565b82601f1061096057805160ff191683800117855561098d565b8280016001018555821561098d579182015b8281111561098d578251825591602001919060010190610972565b5061099992915061099d565b5090565b5b80821115610999576000815560010161099e565b80356001600160a01b03811681146109c957600080fd5b919050565b600080604083850312156109e157600080fd5b6109ea836109b2565b946020939093013593505050565b60005b83811015610a135781810151838201526020016109fb565b838111156106be5750506000910152565b60008151808452610a3c8160208601602086016109f8565b601f01601f19169290920160200192915050565b608081526000610a636080830187610a24565b6020830195909552506001600160a01b03929092166040830152606090910152919050565b6001600160a01b0391909116815260200190565b600060208284031215610aae57600080fd5b6107a8826109b2565b634e487b7160e01b600052604160045260246000fd5b600080600060608486031215610ae257600080fd5b833567ffffffffffffffff80821115610afa57600080fd5b818601915086601f830112610b0e57600080fd5b813581811115610b2057610b20610ab7565b604051601f8201601f19908116603f01168101908382118183101715610b4857610b48610ab7565b81604052828152896020848701011115610b6157600080fd5b826020860160208301376000602084830101528097505050505050610b88602085016109b2565b9150604084013590509250925092565b600181811c90821680610bac57607f821691505b60208210811415610bcd57634e487b7160e01b600052602260045260246000fd5b50919050565b600060208284031215610be557600080fd5b5051919050565b6020808252601a908201527f496e73756666696369656e7420746f6b656e2062616c616e6365000000000000604082015260600190565b600060208284031215610c3557600080fd5b815180151581146107a857600080fd5b60008251610c578184602087016109f8565b9190910192915050565b6020815260006107a86020830184610a2456fea2646970667358221220e421a27ee10e695fe83ccc5933d0361f65c79b3ea3bfe52018d8306c934e806564736f6c63430008090033",
  "linkReferences": {},
  "deployedLinkReferences": {}
}